{
    "_format": "hh-sol-artifact-1",
    "contractName": "Counter",
    "sourceName": "contracts/Lock.sol",
    "abi": [
        {
            "anonymous": false,
            "inputs": [
                {
                    "indexed": true,
                    "internalType": "uint256",
                    "name": "_number",
                    "type": "uint256"
                }
            ],
            "name": "Change",
            "type": "event"
        },
        {
            "inputs": [],
            "name": "decrease",
            "outputs": [],
            "stateMutability": "nonpayable",
            "type": "function"
        },
        {
            "inputs": [],
            "name": "increase",
            "outputs": [],
            "stateMutability": "nonpayable",
            "type": "function"
        },
        {
            "inputs": [],
            "name": "num",
            "outputs": [
                {
                    "internalType": "uint256",
                    "name": "",
                    "type": "uint256"
                }
            ],
            "stateMutability": "view",
            "type": "function"
        }
    ],
    "bytecode": "0x60806040526000805534801561001457600080fd5b50610213806100246000396000f3fe608060405234801561001057600080fd5b50600436106100415760003560e01c80634e70b1dc14610046578063d732d95514610064578063e8927fbc1461006e575b600080fd5b61004e610078565b60405161005b919061012b565b60405180910390f35b61006c61007e565b005b6100766100c8565b005b60005481565b60016000808282546100909190610175565b925050819055506000547ff956bf4ad7309c08d315aa8ed40ff728f7e6f2652f6bfbdadf06e5538e1c176860405160405180910390a2565b60016000808282546100da91906101a9565b925050819055506000547ff956bf4ad7309c08d315aa8ed40ff728f7e6f2652f6bfbdadf06e5538e1c176860405160405180910390a2565b6000819050919050565b61012581610112565b82525050565b6000602082019050610140600083018461011c565b92915050565b7f4e487b7100000000000000000000000000000000000000000000000000000000600052601160045260246000fd5b600061018082610112565b915061018b83610112565b92508282039050818111156101a3576101a2610146565b5b92915050565b60006101b482610112565b91506101bf83610112565b92508282019050808211156101d7576101d6610146565b5b9291505056fea2646970667358221220deb2d368dca13492e8b875048f2c82c2a85940ac038d5f24b75d4dd7a9b37f0c64736f6c63430008110033",
    "linkReferences": {},
    "deployedLinkReferences": {}
}